{
  "contractName": "Parking",
  "abi": [
    {
      "inputs": [
        {
          "internalType": "address",
          "name": "parxosContAddr",
          "type": "address"
        }
      ],
      "stateMutability": "nonpayable",
      "type": "constructor"
    },
    {
      "anonymous": false,
      "inputs": [
        {
          "indexed": true,
          "internalType": "address",
          "name": "previousOwner",
          "type": "address"
        },
        {
          "indexed": true,
          "internalType": "address",
          "name": "newOwner",
          "type": "address"
        }
      ],
      "name": "OwnershipTransferred",
      "type": "event"
    },
    {
      "inputs": [],
      "name": "isOwner",
      "outputs": [
        {
          "internalType": "bool",
          "name": "",
          "type": "bool"
        }
      ],
      "stateMutability": "view",
      "type": "function"
    },
    {
      "inputs": [],
      "name": "owner",
      "outputs": [
        {
          "internalType": "address",
          "name": "",
          "type": "address"
        }
      ],
      "stateMutability": "view",
      "type": "function"
    },
    {
      "inputs": [],
      "name": "renounceOwnership",
      "outputs": [],
      "stateMutability": "nonpayable",
      "type": "function"
    },
    {
      "inputs": [
        {
          "internalType": "address",
          "name": "newOwner",
          "type": "address"
        }
      ],
      "name": "transferOwnership",
      "outputs": [],
      "stateMutability": "nonpayable",
      "type": "function"
    },
    {
      "inputs": [
        {
          "internalType": "uint256",
          "name": "_spaceId",
          "type": "uint256"
        },
        {
          "internalType": "address",
          "name": "_owner",
          "type": "address"
        }
      ],
      "name": "addOwner",
      "outputs": [
        {
          "internalType": "bool",
          "name": "success",
          "type": "bool"
        }
      ],
      "stateMutability": "nonpayable",
      "type": "function"
    },
    {
      "inputs": [
        {
          "internalType": "uint256",
          "name": "_begTimestamp",
          "type": "uint256"
        },
        {
          "internalType": "uint256",
          "name": "_endTimestamp",
          "type": "uint256"
        },
        {
          "internalType": "uint256",
          "name": "_openingHead",
          "type": "uint256"
        },
        {
          "internalType": "uint256",
          "name": "_openingTail",
          "type": "uint256"
        },
        {
          "internalType": "uint256",
          "name": "_spaceId",
          "type": "uint256"
        },
        {
          "internalType": "uint256",
          "name": "_openingId",
          "type": "uint256"
        },
        {
          "internalType": "uint256",
          "name": "_value",
          "type": "uint256"
        }
      ],
      "name": "addOpening",
      "outputs": [
        {
          "internalType": "bool",
          "name": "success",
          "type": "bool"
        }
      ],
      "stateMutability": "nonpayable",
      "type": "function"
    },
    {
      "inputs": [
        {
          "internalType": "uint256",
          "name": "_openingId",
          "type": "uint256"
        }
      ],
      "name": "buyOpening",
      "outputs": [
        {
          "internalType": "bool",
          "name": "",
          "type": "bool"
        }
      ],
      "stateMutability": "nonpayable",
      "type": "function"
    }
  ],
  "bytecode": "0x608060405234801561001057600080fd5b506040516114f93803806114f98339818101604052602081101561003357600080fd5b8101908080519060200190929190505050600061005461013960201b60201c565b9050806000806101000a81548173ffffffffffffffffffffffffffffffffffffffff021916908373ffffffffffffffffffffffffffffffffffffffff1602179055508073ffffffffffffffffffffffffffffffffffffffff16600073ffffffffffffffffffffffffffffffffffffffff167f8be0079c531659141344cd1fd0a4f28419497f9722a3daafe3b4186f6b6457e060405160405180910390a35080600160006101000a81548173ffffffffffffffffffffffffffffffffffffffff021916908373ffffffffffffffffffffffffffffffffffffffff16021790555050610141565b600033905090565b6113a9806101506000396000f3fe608060405234801561001057600080fd5b506004361061007d5760003560e01c80638da5cb5b1161005b5780638da5cb5b146101745780638f32d59b146101be578063938cdb14146101e0578063f2fde38b146102265761007d565b80633b6aa35614610082578063715018a6146101045780638cd1bb201461010e575b600080fd5b6100ea600480360360e081101561009857600080fd5b810190808035906020019092919080359060200190929190803590602001909291908035906020019092919080359060200190929190803590602001909291908035906020019092919050505061026a565b604051808215151515815260200191505060405180910390f35b61010c6109bb565b005b61015a6004803603604081101561012457600080fd5b8101908080359060200190929190803573ffffffffffffffffffffffffffffffffffffffff169060200190929190505050610af4565b604051808215151515815260200191505060405180910390f35b61017c610bcc565b604051808273ffffffffffffffffffffffffffffffffffffffff1673ffffffffffffffffffffffffffffffffffffffff16815260200191505060405180910390f35b6101c6610bf5565b604051808215151515815260200191505060405180910390f35b61020c600480360360208110156101f657600080fd5b8101908080359060200190929190505050610c53565b604051808215151515815260200191505060405180910390f35b6102686004803603602081101561023c57600080fd5b81019080803573ffffffffffffffffffffffffffffffffffffffff1690602001909291905050506110cd565b005b60003373ffffffffffffffffffffffffffffffffffffffff166004600086815260200190815260200160002060009054906101000a900473ffffffffffffffffffffffffffffffffffffffff1673ffffffffffffffffffffffffffffffffffffffff1614610340576040517f08c379a000000000000000000000000000000000000000000000000000000000815260040180806020018281038252601d8152602001807f5370616365206e6f74206f776e6564206279206d73672e73656e64657200000081525060200191505060405180910390fd5b60006002600086815260200190815260200160002060006002811061036157fe5b01541480156103705750600086145b801561037c5750600085145b1561041657604051806040016040528084815260200184815250600260008681526020019081526020016000209060026103b792919061129f565b50604051806040016040528089815260200188815250600360008581526020019081526020016000206001019060026103f192919061129f565b50816003600085815260200190815260200160002060050181905550600190506109b0565b600086141561058a57866003600087815260200190815260200160002060010160006002811061044257fe5b0154116104b7576040517f08c379a00000000000000000000000000000000000000000000000000000000081526004018080602001828103825260208152602001807f4f70656e696e67206973206e6f74206265666f726520616c6c206f746865727381525060200191505060405180910390fd5b82600260008681526020019081526020016000206000600281106104d757fe5b01819055506040518060400160405280898152602001888152506003600085815260200190815260200160002060010190600261051592919061129f565b50846003600085815260200190815260200160002060030160016002811061053957fe5b0181905550826003600087815260200190815260200160002060030160006002811061056157fe5b0181905550816003600085815260200190815260200160002060050181905550600190506109b0565b60008514156106fe5787600360008881526020019081526020016000206001016001600281106105b657fe5b01541061062b576040517f08c379a00000000000000000000000000000000000000000000000000000000081526004018080602001828103825260208152602001807f4f70656e696e67206973206e6f74206265666f726520616c6c206f746865727381525060200191505060405180910390fd5b826002600086815260200190815260200160002060016002811061064b57fe5b01819055506040518060400160405280898152602001888152506003600085815260200190815260200160002060010190600261068992919061129f565b5085600360008581526020019081526020016000206003016000600281106106ad57fe5b018190555082600360008881526020019081526020016000206003016001600281106106d557fe5b0181905550816003600085815260200190815260200160002060050181905550600190506109b0565b6003600086815260200190815260200160002060030160006002811061072057fe5b01546003600088815260200190815260200160002060030160016002811061074457fe5b01541461079c576040517f08c379a000000000000000000000000000000000000000000000000000000000815260040180806020018281038252602481526020018061132b6024913960400191505060405180910390fd5b87600360008881526020019081526020016000206001016001600281106107bf57fe5b015410610834576040517f08c379a00000000000000000000000000000000000000000000000000000000081526004018080602001828103825260198152602001807f4f70656e696e67206973206e6f7420616674657220686561640000000000000081525060200191505060405180910390fd5b866003600087815260200190815260200160002060010160006002811061085757fe5b0154116108cc576040517f08c379a000000000000000000000000000000000000000000000000000000000815260040180806020018281038252601a8152602001807f4f70656e696e67206973206e6f74206265666f7265207461696c00000000000081525060200191505060405180910390fd5b6040518060400160405280898152602001888152506003600085815260200190815260200160002060010190600261090592919061129f565b506040518060400160405280878152602001868152506003600085815260200190815260200160002060030190600261093f92919061129f565b50826003600088815260200190815260200160002060030160016002811061096357fe5b0181905550826003600087815260200190815260200160002060030160006002811061098b57fe5b0181905550816003600085815260200190815260200160002060050181905550600190505b979650505050505050565b6109c3610bf5565b610a35576040517f08c379a00000000000000000000000000000000000000000000000000000000081526004018080602001828103825260208152602001807f4f776e61626c653a2063616c6c6572206973206e6f7420746865206f776e657281525060200191505060405180910390fd5b600073ffffffffffffffffffffffffffffffffffffffff166000809054906101000a900473ffffffffffffffffffffffffffffffffffffffff1673ffffffffffffffffffffffffffffffffffffffff167f8be0079c531659141344cd1fd0a4f28419497f9722a3daafe3b4186f6b6457e060405160405180910390a360008060006101000a81548173ffffffffffffffffffffffffffffffffffffffff021916908373ffffffffffffffffffffffffffffffffffffffff160217905550565b6000610afe610bf5565b610b70576040517f08c379a00000000000000000000000000000000000000000000000000000000081526004018080602001828103825260208152602001807f4f776e61626c653a2063616c6c6572206973206e6f7420746865206f776e657281525060200191505060405180910390fd5b816004600085815260200190815260200160002060006101000a81548173ffffffffffffffffffffffffffffffffffffffff021916908373ffffffffffffffffffffffffffffffffffffffff1602179055506001905092915050565b60008060009054906101000a900473ffffffffffffffffffffffffffffffffffffffff16905090565b60008060009054906101000a900473ffffffffffffffffffffffffffffffffffffffff1673ffffffffffffffffffffffffffffffffffffffff16610c37611153565b73ffffffffffffffffffffffffffffffffffffffff1614905090565b60006003600083815260200190815260200160002060050154600160009054906101000a900473ffffffffffffffffffffffffffffffffffffffff1673ffffffffffffffffffffffffffffffffffffffff166370a08231336040518263ffffffff1660e01b8152600401808273ffffffffffffffffffffffffffffffffffffffff1673ffffffffffffffffffffffffffffffffffffffff168152602001915050602060405180830381600087803b158015610d0d57600080fd5b505af1158015610d21573d6000803e3d6000fd5b505050506040513d6020811015610d3757600080fd5b81019080805190602001909291905050501015610d9f576040517f08c379a000000000000000000000000000000000000000000000000000000000815260040180806020018281038252602581526020018061134f6025913960400191505060405180910390fd5b6003600083815260200190815260200160002060050154600160009054906101000a900473ffffffffffffffffffffffffffffffffffffffff1673ffffffffffffffffffffffffffffffffffffffff1663dd62ed3e33306040518363ffffffff1660e01b8152600401808373ffffffffffffffffffffffffffffffffffffffff1673ffffffffffffffffffffffffffffffffffffffff1681526020018273ffffffffffffffffffffffffffffffffffffffff1673ffffffffffffffffffffffffffffffffffffffff16815260200192505050602060405180830381600087803b158015610e8b57600080fd5b505af1158015610e9f573d6000803e3d6000fd5b505050506040513d6020811015610eb557600080fd5b81019080805190602001909291905050501015610f3a576040517f08c379a000000000000000000000000000000000000000000000000000000000815260040180806020018281038252601f8152602001807f73656e64657220686173206e6f7420656e6f75676820616c6c6f77616e63650081525060200191505060405180910390fd5b60006003600084815260200190815260200160002060050154905060006003600085815260200190815260200160002060000154905060006004600083815260200190815260200160002060009054906101000a900473ffffffffffffffffffffffffffffffffffffffff169050600160009054906101000a900473ffffffffffffffffffffffffffffffffffffffff1673ffffffffffffffffffffffffffffffffffffffff166323b872dd3383866040518463ffffffff1660e01b8152600401808473ffffffffffffffffffffffffffffffffffffffff1673ffffffffffffffffffffffffffffffffffffffff1681526020018373ffffffffffffffffffffffffffffffffffffffff1673ffffffffffffffffffffffffffffffffffffffff1681526020018281526020019350505050602060405180830381600087803b15801561108557600080fd5b505af1158015611099573d6000803e3d6000fd5b505050506040513d60208110156110af57600080fd5b81019080805190602001909291905050505060019350505050919050565b6110d5610bf5565b611147576040517f08c379a00000000000000000000000000000000000000000000000000000000081526004018080602001828103825260208152602001807f4f776e61626c653a2063616c6c6572206973206e6f7420746865206f776e657281525060200191505060405180910390fd5b6111508161115b565b50565b600033905090565b600073ffffffffffffffffffffffffffffffffffffffff168173ffffffffffffffffffffffffffffffffffffffff1614156111e1576040517f08c379a00000000000000000000000000000000000000000000000000000000081526004018080602001828103825260268152602001806113056026913960400191505060405180910390fd5b8073ffffffffffffffffffffffffffffffffffffffff166000809054906101000a900473ffffffffffffffffffffffffffffffffffffffff1673ffffffffffffffffffffffffffffffffffffffff167f8be0079c531659141344cd1fd0a4f28419497f9722a3daafe3b4186f6b6457e060405160405180910390a3806000806101000a81548173ffffffffffffffffffffffffffffffffffffffff021916908373ffffffffffffffffffffffffffffffffffffffff16021790555050565b82600281019282156112ce579160200282015b828111156112cd5782518255916020019190600101906112b2565b5b5090506112db91906112df565b5090565b61130191905b808211156112fd5760008160009055506001016112e5565b5090565b9056fe4f776e61626c653a206e6577206f776e657220697320746865207a65726f20616464726573734f70656e696e67206973206e6f74206265747765656e206865616420616e64207461696c6e6f7420656e6f75676820746f6b656e7320696e2073656e64657227732062616c616e6365a26469706673582212203d970d5777163ad6c14793e26aeef8cc03172a2b3f56895ccf86650ea20c36a764736f6c63430006030033",
  "source": "pragma solidity ^0.6.3;\n\n// import \"openzeppelin-solidity/contracts/ownership/Ownable.sol\";\nimport \"../node_modules/openzeppelin-solidity/contracts/ownership/Ownable.sol\";\n\ninterface ERC20Token {\n    function allowance(address, address) external returns (uint256);\n    function balanceOf(address) external returns (uint256);\n    function transferFrom(address, address, uint256) external returns (bool);\n}\n\ncontract Parking is Ownable {\n    ERC20Token pc; // Parxos contract (pc)\n\n    constructor(address parxosContAddr) public {\n        pc = ERC20Token(parxosContAddr);\n    }\n\n    struct openingStruct {\n        uint256 spaceId; // Space ID of Opening\n        uint256[2] timestamps; // [beginTsHash, endTsHash]\n        uint256[2] spaceLinks; // [headId, tailId] Linked List of space openings head and tail (0 if head and/or tail)\n        uint256 value; // cost of the opening\n    }\n\n    mapping(uint256 => uint256[2]) space; // spaceId (uint256) to Opening Linked List [head, tail]\n    mapping(uint256 => openingStruct) opening; // opening (uint256) to opening struct\n    mapping(uint256 => address) spaceOwner; // owner of parking space\n\n    function addOwner(uint256 _spaceId, address _owner)\n        public\n        onlyOwner\n        returns (bool success)\n    {\n        spaceOwner[_spaceId] = _owner;\n        return true;\n    }\n\n    function addOpening(\n        uint256 _begTimestamp,\n        uint256 _endTimestamp,\n        uint256 _openingHead,\n        uint256 _openingTail,\n        uint256 _spaceId,\n        uint256 _openingId,\n        uint256 _value\n    ) public returns (bool success) {\n        require(\n            spaceOwner[_spaceId] == msg.sender,\n            \"Space not owned by msg.sender\"\n        );\n        if (\n            space[_spaceId][0] == 0 &&\n            _openingHead == uint256(0) &&\n            _openingTail == uint256(0)\n        ) {\n            space[_spaceId] = [_openingId, _openingId];\n            opening[_openingId].timestamps = [_begTimestamp, _endTimestamp];\n            opening[_openingId].value = _value;\n            return true;\n        }\n\n        if (_openingHead == uint256(0)) {\n            require(\n                opening[_openingTail].timestamps[0] > _endTimestamp,\n                \"Opening is not before all others\"\n            );\n            space[_spaceId][0] = _openingId;\n            opening[_openingId].timestamps = [_begTimestamp, _endTimestamp];\n            opening[_openingId].spaceLinks[1] = _openingTail;\n            opening[_openingTail].spaceLinks[0] = _openingId;\n            opening[_openingId].value = _value;\n            return true;\n        }\n\n        if (_openingTail == uint256(0)) {\n            require(\n                opening[_openingHead].timestamps[1] < _begTimestamp,\n                \"Opening is not before all others\"\n            );\n            space[_spaceId][1] = _openingId;\n            opening[_openingId].timestamps = [_begTimestamp, _endTimestamp];\n            opening[_openingId].spaceLinks[0] = _openingHead;\n            opening[_openingHead].spaceLinks[1] = _openingId;\n            opening[_openingId].value = _value;\n            return true;\n        }\n\n        require(\n            opening[_openingHead].spaceLinks[1] ==\n                opening[_openingTail].spaceLinks[0],\n            \"Opening is not between head and tail\"\n        );\n        require(\n            opening[_openingHead].timestamps[1] < _begTimestamp,\n            \"Opening is not after head\"\n        );\n        require(\n            opening[_openingTail].timestamps[0] > _endTimestamp,\n            \"Opening is not before tail\"\n        );\n        opening[_openingId].timestamps = [_begTimestamp, _endTimestamp];\n        opening[_openingId].spaceLinks = [_openingHead, _openingTail];\n        opening[_openingHead].spaceLinks[1] = _openingId;\n        opening[_openingTail].spaceLinks[0] = _openingId;\n        opening[_openingId].value = _value;\n        return true;\n    }\n\n    function buyOpening(uint256 _openingId) public returns (bool) {\n        require(\n            pc.balanceOf(msg.sender) >= opening[_openingId].value,\n            \"not enough tokens in sender's balance\"\n        );\n        require(\n            pc.allowance(msg.sender, address(this)) >=\n                opening[_openingId].value,\n            \"sender has not enough allowance\"\n        );\n        uint256 value = opening[_openingId].value;\n        uint256 spaceId = opening[_openingId].spaceId;\n        address openingOwner = spaceOwner[spaceId];\n        pc.transferFrom(msg.sender, openingOwner, value);\n        return true;\n    }\n}\n",
  "sourcePath": "/Users/karnsood/Projects/hackhouston-complete/hackhouston-truffle/contracts/Parking.sol",
  "compiler": {
    "name": "solc",
    "version": "0.6.3+commit.8dda9521.Emscripten.clang"
  },
  "schemaVersion": "3.0.23",
  "updatedAt": "2020-03-07T21:36:22.351Z",
  "devdoc": {
    "methods": {
      "isOwner()": {
        "details": "Returns true if the caller is the current owner."
      },
      "owner()": {
        "details": "Returns the address of the current owner."
      },
      "renounceOwnership()": {
        "details": "Leaves the contract without owner. It will not be possible to call `onlyOwner` functions anymore. Can only be called by the current owner.     * NOTE: Renouncing ownership will leave the contract without an owner, thereby removing any functionality that is only available to the owner."
      },
      "transferOwnership(address)": {
        "details": "Transfers ownership of the contract to a new account (`newOwner`). Can only be called by the current owner."
      }
    }
  },
  "userdoc": {
    "methods": {}
  }
}